S00C00006D61696E2E7372656373
S11300000C942A000C9447000C9447000C9447006D
S11300100C9447000C9447000C9447000C94470040
S11300200C9447000C9447000C9447000C94470030
S11300300C9447000C9447000C9447000C94470020
S11300400C9447000C9447000C9447000C94470010
S11300500C94470011241FBECFE5D8E0DEBFCDBF0E
S113006010E0A0E6B0E0EAE7F1E002C005900D92EE
S1130070AE36B107D9F720E0AEE6B0E001C01D927C
S1130080A03FB207E1F70E94A5000C94BB000C94BA
S1130090000010BC83E389B9539A549A80B58260F6
S11300A080BD80B5846080BD80B5806880BD0895C2
S11300B05D9BFECF8CB90895CF93DF93DC01EC01F7
S11300C020E030E0FD0101900020E9F73197EA1BC0
S11300D0FB0B2E173F0738F489915D9BFECF8CB93B
S11300E02F5F3F4FEFCFDF91CF9108951F920F9273
S11300F00FB60F9211248F939F93EF93FF938CB1BC
S11301008A30B9F090916F009F3750F4E0916F00FE
S113011091E09E0F90936F00F0E0E059FF4F8083D1
S1130120FF91EF919F918F910F900FBE0F901F90B1
S11301301895E0916F00F0E0E059FF4F108281E0E4
S113014080936E0010926F00EBCF0E944900789468
S113015080916E008823E1F380E690E00E945C00C9
S113016080E790E00E945C008BE690E00E945C00D7
S10D017010926E00EDCFF894FFCF5B
S111017A47505320446174613A20000A00008B
S9030000FC
